{
  "abi": [
    {
      "inputs": [],
      "stateMutability": "nonpayable",
      "type": "constructor"
    },
    {
      "anonymous": false,
      "inputs": [
        {
          "indexed": true,
          "internalType": "address",
          "name": "owner",
          "type": "address"
        },
        {
          "indexed": true,
          "internalType": "address",
          "name": "spender",
          "type": "address"
        },
        {
          "indexed": false,
          "internalType": "uint256",
          "name": "amount",
          "type": "uint256"
        }
      ],
      "name": "Approval",
      "type": "event"
    },
    {
      "anonymous": false,
      "inputs": [
        {
          "indexed": true,
          "internalType": "address",
          "name": "caller",
          "type": "address"
        },
        {
          "indexed": true,
          "internalType": "address",
          "name": "owner",
          "type": "address"
        },
        {
          "indexed": false,
          "internalType": "uint256",
          "name": "assets",
          "type": "uint256"
        },
        {
          "indexed": false,
          "internalType": "uint256",
          "name": "shares",
          "type": "uint256"
        }
      ],
      "name": "Deposit",
      "type": "event"
    },
    {
      "anonymous": false,
      "inputs": [
        {
          "indexed": true,
          "internalType": "address",
          "name": "previousOwner",
          "type": "address"
        },
        {
          "indexed": true,
          "internalType": "address",
          "name": "newOwner",
          "type": "address"
        }
      ],
      "name": "OwnershipTransferred",
      "type": "event"
    },
    {
      "anonymous": false,
      "inputs": [
        {
          "indexed": true,
          "internalType": "address",
          "name": "from",
          "type": "address"
        },
        {
          "indexed": true,
          "internalType": "address",
          "name": "to",
          "type": "address"
        },
        {
          "indexed": false,
          "internalType": "uint256",
          "name": "amount",
          "type": "uint256"
        }
      ],
      "name": "Transfer",
      "type": "event"
    },
    {
      "anonymous": false,
      "inputs": [
        {
          "indexed": true,
          "internalType": "address",
          "name": "caller",
          "type": "address"
        },
        {
          "indexed": true,
          "internalType": "address",
          "name": "receiver",
          "type": "address"
        },
        {
          "indexed": true,
          "internalType": "address",
          "name": "owner",
          "type": "address"
        },
        {
          "indexed": false,
          "internalType": "uint256",
          "name": "assets",
          "type": "uint256"
        },
        {
          "indexed": false,
          "internalType": "uint256",
          "name": "shares",
          "type": "uint256"
        }
      ],
      "name": "Withdraw",
      "type": "event"
    },
    {
      "anonymous": false,
      "inputs": [
        {
          "indexed": false,
          "internalType": "string",
          "name": "key",
          "type": "string"
        },
        {
          "indexed": false,
          "internalType": "uint256",
          "name": "val",
          "type": "uint256"
        }
      ],
      "name": "log_named_uint",
      "type": "event"
    },
    {
      "inputs": [],
      "name": "DOMAIN_SEPARATOR",
      "outputs": [
        {
          "internalType": "bytes32",
          "name": "",
          "type": "bytes32"
        }
      ],
      "stateMutability": "view",
      "type": "function"
    },
    {
      "inputs": [
        {
          "internalType": "address",
          "name": "",
          "type": "address"
        },
        {
          "internalType": "address",
          "name": "",
          "type": "address"
        }
      ],
      "name": "allowance",
      "outputs": [
        {
          "internalType": "uint256",
          "name": "",
          "type": "uint256"
        }
      ],
      "stateMutability": "view",
      "type": "function"
    },
    {
      "inputs": [
        {
          "internalType": "address",
          "name": "spender",
          "type": "address"
        },
        {
          "internalType": "uint256",
          "name": "amount",
          "type": "uint256"
        }
      ],
      "name": "approve",
      "outputs": [
        {
          "internalType": "bool",
          "name": "",
          "type": "bool"
        }
      ],
      "stateMutability": "nonpayable",
      "type": "function"
    },
    {
      "inputs": [],
      "name": "asset",
      "outputs": [
        {
          "internalType": "contract ERC20",
          "name": "",
          "type": "address"
        }
      ],
      "stateMutability": "view",
      "type": "function"
    },
    {
      "inputs": [
        {
          "internalType": "address",
          "name": "",
          "type": "address"
        }
      ],
      "name": "balanceOf",
      "outputs": [
        {
          "internalType": "uint256",
          "name": "",
          "type": "uint256"
        }
      ],
      "stateMutability": "view",
      "type": "function"
    },
    {
      "inputs": [
        {
          "internalType": "uint256",
          "name": "shares",
          "type": "uint256"
        }
      ],
      "name": "convertToAssets",
      "outputs": [
        {
          "internalType": "uint256",
          "name": "",
          "type": "uint256"
        }
      ],
      "stateMutability": "view",
      "type": "function"
    },
    {
      "inputs": [
        {
          "internalType": "uint256",
          "name": "assets",
          "type": "uint256"
        }
      ],
      "name": "convertToShares",
      "outputs": [
        {
          "internalType": "uint256",
          "name": "",
          "type": "uint256"
        }
      ],
      "stateMutability": "view",
      "type": "function"
    },
    {
      "inputs": [],
      "name": "decimals",
      "outputs": [
        {
          "internalType": "uint8",
          "name": "",
          "type": "uint8"
        }
      ],
      "stateMutability": "view",
      "type": "function"
    },
    {
      "inputs": [
        {
          "internalType": "uint256",
          "name": "assets",
          "type": "uint256"
        },
        {
          "internalType": "address",
          "name": "receiver",
          "type": "address"
        }
      ],
      "name": "deposit",
      "outputs": [
        {
          "internalType": "uint256",
          "name": "shares",
          "type": "uint256"
        }
      ],
      "stateMutability": "nonpayable",
      "type": "function"
    },
    {
      "inputs": [
        {
          "internalType": "address",
          "name": "",
          "type": "address"
        }
      ],
      "name": "maxDeposit",
      "outputs": [
        {
          "internalType": "uint256",
          "name": "",
          "type": "uint256"
        }
      ],
      "stateMutability": "view",
      "type": "function"
    },
    {
      "inputs": [
        {
          "internalType": "address",
          "name": "",
          "type": "address"
        }
      ],
      "name": "maxMint",
      "outputs": [
        {
          "internalType": "uint256",
          "name": "",
          "type": "uint256"
        }
      ],
      "stateMutability": "view",
      "type": "function"
    },
    {
      "inputs": [
        {
          "internalType": "address",
          "name": "owner",
          "type": "address"
        }
      ],
      "name": "maxRedeem",
      "outputs": [
        {
          "internalType": "uint256",
          "name": "",
          "type": "uint256"
        }
      ],
      "stateMutability": "view",
      "type": "function"
    },
    {
      "inputs": [
        {
          "internalType": "address",
          "name": "owner",
          "type": "address"
        }
      ],
      "name": "maxWithdraw",
      "outputs": [
        {
          "internalType": "uint256",
          "name": "",
          "type": "uint256"
        }
      ],
      "stateMutability": "view",
      "type": "function"
    },
    {
      "inputs": [
        {
          "internalType": "uint256",
          "name": "shares",
          "type": "uint256"
        },
        {
          "internalType": "address",
          "name": "receiver",
          "type": "address"
        }
      ],
      "name": "mint",
      "outputs": [
        {
          "internalType": "uint256",
          "name": "assets",
          "type": "uint256"
        }
      ],
      "stateMutability": "nonpayable",
      "type": "function"
    },
    {
      "inputs": [],
      "name": "name",
      "outputs": [
        {
          "internalType": "string",
          "name": "",
          "type": "string"
        }
      ],
      "stateMutability": "view",
      "type": "function"
    },
    {
      "inputs": [
        {
          "internalType": "address",
          "name": "",
          "type": "address"
        }
      ],
      "name": "nonces",
      "outputs": [
        {
          "internalType": "uint256",
          "name": "",
          "type": "uint256"
        }
      ],
      "stateMutability": "view",
      "type": "function"
    },
    {
      "inputs": [],
      "name": "owner",
      "outputs": [
        {
          "internalType": "address",
          "name": "",
          "type": "address"
        }
      ],
      "stateMutability": "view",
      "type": "function"
    },
    {
      "inputs": [
        {
          "internalType": "address",
          "name": "owner",
          "type": "address"
        },
        {
          "internalType": "address",
          "name": "spender",
          "type": "address"
        },
        {
          "internalType": "uint256",
          "name": "value",
          "type": "uint256"
        },
        {
          "internalType": "uint256",
          "name": "deadline",
          "type": "uint256"
        },
        {
          "internalType": "uint8",
          "name": "v",
          "type": "uint8"
        },
        {
          "internalType": "bytes32",
          "name": "r",
          "type": "bytes32"
        },
        {
          "internalType": "bytes32",
          "name": "s",
          "type": "bytes32"
        }
      ],
      "name": "permit",
      "outputs": [],
      "stateMutability": "nonpayable",
      "type": "function"
    },
    {
      "inputs": [
        {
          "internalType": "uint256",
          "name": "assets",
          "type": "uint256"
        }
      ],
      "name": "previewDeposit",
      "outputs": [
        {
          "internalType": "uint256",
          "name": "",
          "type": "uint256"
        }
      ],
      "stateMutability": "view",
      "type": "function"
    },
    {
      "inputs": [
        {
          "internalType": "uint256",
          "name": "shares",
          "type": "uint256"
        }
      ],
      "name": "previewMint",
      "outputs": [
        {
          "internalType": "uint256",
          "name": "",
          "type": "uint256"
        }
      ],
      "stateMutability": "view",
      "type": "function"
    },
    {
      "inputs": [
        {
          "internalType": "uint256",
          "name": "shares",
          "type": "uint256"
        }
      ],
      "name": "previewRedeem",
      "outputs": [
        {
          "internalType": "uint256",
          "name": "",
          "type": "uint256"
        }
      ],
      "stateMutability": "view",
      "type": "function"
    },
    {
      "inputs": [
        {
          "internalType": "uint256",
          "name": "assets",
          "type": "uint256"
        }
      ],
      "name": "previewWithdraw",
      "outputs": [
        {
          "internalType": "uint256",
          "name": "",
          "type": "uint256"
        }
      ],
      "stateMutability": "view",
      "type": "function"
    },
    {
      "inputs": [
        {
          "internalType": "uint256",
          "name": "shares",
          "type": "uint256"
        },
        {
          "internalType": "address",
          "name": "receiver",
          "type": "address"
        },
        {
          "internalType": "address",
          "name": "owner",
          "type": "address"
        }
      ],
      "name": "redeem",
      "outputs": [
        {
          "internalType": "uint256",
          "name": "assets",
          "type": "uint256"
        }
      ],
      "stateMutability": "nonpayable",
      "type": "function"
    },
    {
      "inputs": [],
      "name": "renounceOwnership",
      "outputs": [],
      "stateMutability": "nonpayable",
      "type": "function"
    },
    {
      "inputs": [
        {
          "internalType": "address",
          "name": "_token",
          "type": "address"
        },
        {
          "internalType": "uint256",
          "name": "_amount",
          "type": "uint256"
        }
      ],
      "name": "saveTokens",
      "outputs": [],
      "stateMutability": "nonpayable",
      "type": "function"
    },
    {
      "inputs": [],
      "name": "symbol",
      "outputs": [
        {
          "internalType": "string",
          "name": "",
          "type": "string"
        }
      ],
      "stateMutability": "view",
      "type": "function"
    },
    {
      "inputs": [],
      "name": "totalAssets",
      "outputs": [
        {
          "internalType": "uint256",
          "name": "",
          "type": "uint256"
        }
      ],
      "stateMutability": "view",
      "type": "function"
    },
    {
      "inputs": [],
      "name": "totalSupply",
      "outputs": [
        {
          "internalType": "uint256",
          "name": "",
          "type": "uint256"
        }
      ],
      "stateMutability": "view",
      "type": "function"
    },
    {
      "inputs": [
        {
          "internalType": "address",
          "name": "to",
          "type": "address"
        },
        {
          "internalType": "uint256",
          "name": "amount",
          "type": "uint256"
        }
      ],
      "name": "transfer",
      "outputs": [
        {
          "internalType": "bool",
          "name": "",
          "type": "bool"
        }
      ],
      "stateMutability": "nonpayable",
      "type": "function"
    },
    {
      "inputs": [
        {
          "internalType": "address",
          "name": "from",
          "type": "address"
        },
        {
          "internalType": "address",
          "name": "to",
          "type": "address"
        },
        {
          "internalType": "uint256",
          "name": "amount",
          "type": "uint256"
        }
      ],
      "name": "transferFrom",
      "outputs": [
        {
          "internalType": "bool",
          "name": "",
          "type": "bool"
        }
      ],
      "stateMutability": "nonpayable",
      "type": "function"
    },
    {
      "inputs": [
        {
          "internalType": "address",
          "name": "newOwner",
          "type": "address"
        }
      ],
      "name": "transferOwnership",
      "outputs": [],
      "stateMutability": "nonpayable",
      "type": "function"
    },
    {
      "inputs": [
        {
          "internalType": "uint256",
          "name": "assets",
          "type": "uint256"
        },
        {
          "internalType": "address",
          "name": "receiver",
          "type": "address"
        },
        {
          "internalType": "address",
          "name": "owner",
          "type": "address"
        }
      ],
      "name": "withdraw",
      "outputs": [
        {
          "internalType": "uint256",
          "name": "shares",
          "type": "uint256"
        }
      ],
      "stateMutability": "nonpayable",
      "type": "function"
    }
  ],
  "bytecode": {
    "object": "0x610100604052600780546001600160a01b031990811673cf50b810e57ac33b91dcf525c6ddd9881b1393321790915560088054821673d9e1ce17f2641f24ae83637ab66a2cca9c378b9f1790556009805482167362b9c7356a2dc64a1969e19c23e4f579f9810aa7179055600a80548216734e3fbd56cd56c3e72c1403e103b45db9da5b9d2b179055600b8054821673d533a949740bb3306d119cc777fa900ba034cd52179055600c805490911673c02aaa39b223fe8d0a0e5c4f27ead9083c756cc2179055348015620000d257600080fd5b50600a60009054906101000a90046001600160a01b03166040518060400160405280600a8152602001690a6e8c2d6cac84086acb60b31b815250604051806040016040528060048152602001630e686acb60e31b8152508181846001600160a01b031663313ce5676040518163ffffffff1660e01b815260040160206040518083038186803b1580156200016557600080fd5b505afa1580156200017a573d6000803e3d6000fd5b505050506040513d601f19601f82011682018060405250810190620001a09190620003bf565b8251620001b590600090602086019062000319565b508151620001cb90600190602085019062000319565b507fff0000000000000000000000000000000000000000000000000000000000000060f882901b166080524660a0526200020462000236565b60c052505050505060601b6001600160601b03191660e052620002306200022a620002c3565b620002c7565b62000503565b60007f8b73c3c69bb8fe3d512ecc4cf759cc79239f7b179b0ffacaa9a75d522b39400f60006040516200026a9190620003e9565b604051908190038120620002a892917fc89efdaa54c0f20c7adf612882df0950f5a951637e0307cdcb4c672f298b8bc690469030906020016200048e565b60405160208183030381529060405280519060200120905090565b3390565b600680546001600160a01b038381166001600160a01b0319831681179093556040519116919082907f8be0079c531659141344cd1fd0a4f28419497f9722a3daafe3b4186f6b6457e090600090a35050565b8280546200032790620004c6565b90600052602060002090601f0160209004810192826200034b576000855562000396565b82601f106200036657805160ff191683800117855562000396565b8280016001018555821562000396579182015b828111156200039657825182559160200191906001019062000379565b50620003a4929150620003a8565b5090565b5b80821115620003a45760008155600101620003a9565b600060208284031215620003d1578081fd5b815160ff81168114620003e2578182fd5b9392505050565b81546000908190600281046001808316806200040657607f831692505b60208084108214156200042757634e487b7160e01b87526022600452602487fd5b8180156200043e5760018114620004505762000480565b60ff1986168952848901965062000480565b6200045b8a620004ba565b885b86811015620004785781548b8201529085019083016200045d565b505084890196505b509498975050505050505050565b9485526020850193909352604084019190915260608301526001600160a01b0316608082015260a00190565b60009081526020902090565b600281046001821680620004db57607f821691505b60208210811415620004fd57634e487b7160e01b600052602260045260246000fd5b50919050565b60805160f81c60a05160c05160e05160601c6127736200055f60003960008181610aae01528181610b1901528181610c3a01528181610e46015261104f01526000610a8701526000610a5301526000610a2d01526127736000f3fe608060405234801561001057600080fd5b50600436106101f05760003560e01c80637ecebe001161010f578063c63d75b6116100a2578063d905777e11610071578063d905777e146103df578063dd62ed3e146103f2578063ef8b30f714610405578063f2fde38b14610418576101f0565b8063c63d75b6146102d0578063c6e6f592146103a6578063ce96cb77146103b9578063d505accf146103cc576101f0565b8063a9059cbb116100de578063a9059cbb1461035a578063b3d7f6b91461036d578063b460af9414610380578063ba08765214610393576101f0565b80637ecebe00146103245780638da5cb5b1461033757806394bf804d1461033f57806395d89b4114610352576101f0565b8063313ce567116101875780634cdad506116101565780634cdad506146102e35780636e553f65146102f657806370a0823114610309578063715018a61461031c576101f0565b8063313ce5671461029e5780633644e515146102b357806338d52e0f146102bb578063402d267d146102d0576101f0565b80630a28a477116101c35780630a28a4771461025b578063127565e41461026e57806318160ddd1461028357806323b872dd1461028b576101f0565b806301e1d114146101f557806306fdde031461021357806307a2d13a14610228578063095ea7b31461023b575b600080fd5b6101fd61042b565b60405161020a91906121ac565b60405180910390f35b61021b610730565b60405161020a9190612233565b6101fd610236366004611fee565b6107be565b61024e610249366004611ee6565b6107ed565b60405161020a91906121a1565b6101fd610269366004611fee565b610858565b61028161027c366004611ee6565b610878565b005b6101fd610945565b61024e610299366004611e3a565b61094b565b6102a6610a2b565b60405161020a919061260e565b6101fd610a4f565b6102c3610aac565b60405161020a9190612174565b6101fd6102de366004611dee565b610ad0565b6101fd6102f1366004611fee565b610ad7565b6101fd61030436600461201e565b610ae2565b6101fd610317366004611dee565b610ba2565b610281610bb4565b6101fd610332366004611dee565b610bff565b6102c3610c11565b6101fd61034d36600461201e565b610c20565b61021b610cc3565b61024e610368366004611ee6565b610cd0565b6101fd61037b366004611fee565b610d34565b6101fd61038e366004612040565b610d53565b6101fd6103a1366004612040565b610e6d565b6101fd6103b4366004611fee565b611076565b6101fd6103c7366004611dee565b611096565b6102816103da366004611e75565b6110b8565b6101fd6103ed366004611dee565b611282565b6101fd610400366004611e08565b61129d565b6101fd610413366004611fee565b6112ba565b610281610426366004611dee565b6112c5565b600080610436611336565b9050600081156106115760408051600480825260a0820190925260009160208201608080368337505060095482519293506001600160a01b03169183915060009061049157634e487b7160e01b600052603260045260246000fd5b6001600160a01b039283166020918202929092010152600b548251911690829060019081106104d057634e487b7160e01b600052603260045260246000fd5b6001600160a01b039283166020918202929092010152600c5482519116908290600290811061050f57634e487b7160e01b600052603260045260246000fd5b6001600160a01b039283166020918202929092010152600a5482519116908290600390811061054e57634e487b7160e01b600052603260045260246000fd5b6001600160a01b03928316602091820292909201015260085460405163d06ca61f60e01b815291169063d06ca61f9061058d9086908590600401612593565b60006040518083038186803b1580156105a557600080fd5b505afa1580156105b9573d6000803e3d6000fd5b505050506040513d6000823e601f3d908101601f191682016040526105e19190810190611f0f565b60038151811061060157634e487b7160e01b600052603260045260246000fd5b6020026020010151915050610615565b5060005b600a546040516370a0823160e01b815282916001600160a01b0316906370a0823190610645903090600401612174565b60206040518083038186803b15801561065d57600080fd5b505afa158015610671573d6000803e3d6000fd5b505050506040513d601f19601f820116820180604052508101906106959190612006565b6007546040516370a0823160e01b81526001600160a01b03909116906370a08231906106c5903090600401612174565b60206040518083038186803b1580156106dd57600080fd5b505afa1580156106f1573d6000803e3d6000fd5b505050506040513d601f19601f820116820180604052508101906107159190612006565b61071f9190612628565b6107299190612628565b9250505090565b6000805461073d90612696565b80601f016020809104026020016040519081016040528092919081815260200182805461076990612696565b80156107b65780601f1061078b576101008083540402835291602001916107b6565b820191906000526020600020905b81548152906001019060200180831161079957829003601f168201915b505050505081565b60025460009080156107e2576107dd6107d561042b565b84908361157c565b6107e4565b825b9150505b919050565b3360008181526004602090815260408083206001600160a01b038716808552925280832085905551919290917f8c5be1e5ebec7d5bd14f71427d1e84f3dd0314c0f7b2291e5b200ac8c7c3b925906108469086906121ac565b60405180910390a35060015b92915050565b60025460009080156107e2576107dd8161087061042b565b85919061159b565b6108806115c9565b6001600160a01b0316610891610c11565b6001600160a01b0316146108c05760405162461bcd60e51b81526004016108b790612446565b60405180910390fd5b60405163a9059cbb60e01b81526001600160a01b0383169063a9059cbb906108ee9033908590600401612188565b602060405180830381600087803b15801561090857600080fd5b505af115801561091c573d6000803e3d6000fd5b505050506040513d601f19601f820116820180604052508101906109409190611fce565b505050565b60025481565b6001600160a01b038316600090815260046020908152604080832033845290915281205460001981146109a757610982838261267f565b6001600160a01b03861660009081526004602090815260408083203384529091529020555b6001600160a01b038516600090815260036020526040812080548592906109cf90849061267f565b90915550506001600160a01b03808516600081815260036020526040908190208054870190555190918716906000805160206126fe83398151915290610a169087906121ac565b60405180910390a360019150505b9392505050565b7f000000000000000000000000000000000000000000000000000000000000000081565b60007f00000000000000000000000000000000000000000000000000000000000000004614610a8557610a806115cd565b610aa7565b7f00000000000000000000000000000000000000000000000000000000000000005b905090565b7f000000000000000000000000000000000000000000000000000000000000000081565b5060001990565b6000610852826107be565b6000610aed836112ba565b905080610b0c5760405162461bcd60e51b81526004016108b7906122ed565b610b416001600160a01b037f000000000000000000000000000000000000000000000000000000000000000016333086611656565b610b4b82826116b9565b816001600160a01b0316336001600160a01b03167fdcbc1c05240f31ff3ad067ef1ee35ce4997762752e3a095284754544f4c709d78584604051610b90929190612600565b60405180910390a36108528382611717565b60036020526000908152604090205481565b610bbc6115c9565b6001600160a01b0316610bcd610c11565b6001600160a01b031614610bf35760405162461bcd60e51b81526004016108b790612446565b610bfd6000611806565b565b60056020526000908152604090205481565b6006546001600160a01b031690565b6000610c2b83610d34565b9050610c626001600160a01b037f000000000000000000000000000000000000000000000000000000000000000016333084611656565b610c6c82846116b9565b816001600160a01b0316336001600160a01b03167fdcbc1c05240f31ff3ad067ef1ee35ce4997762752e3a095284754544f4c709d78386604051610cb1929190612600565b60405180910390a36108528184611717565b6001805461073d90612696565b33600090815260036020526040812080548391908390610cf190849061267f565b90915550506001600160a01b038316600081815260036020526040908190208054850190555133906000805160206126fe833981519152906108469086906121ac565b60025460009080156107e2576107dd610d4b61042b565b84908361159b565b6000610d5e84610858565b9050336001600160a01b03831614610dce576001600160a01b03821660009081526004602090815260408083203384529091529020546000198114610dcc57610da7828261267f565b6001600160a01b03841660009081526004602090815260408083203384529091529020555b505b610dd88482611858565b610de28282611d19565b816001600160a01b0316836001600160a01b0316336001600160a01b03167ffbde797d201c681b91056529119e0b02407c7bb96a4a2c75c01fc9667232c8db8785604051610e31929190612600565b60405180910390a4610a246001600160a01b037f0000000000000000000000000000000000000000000000000000000000000000168486611d7b565b6000336001600160a01b03831614610edd576001600160a01b03821660009081526004602090815260408083203384529091529020546000198114610edb57610eb6858261267f565b6001600160a01b03841660009081526004602090815260408083203384529091529020555b505b610ee684610ad7565b905080610f055760405162461bcd60e51b81526004016108b790612502565b610f10600085611858565b6040516370a0823160e01b815260008051602061271e83398151915290734e3fbd56cd56c3e72c1403e103b45db9da5b9d2b906370a0823190610f57903090600401612174565b60206040518083038186803b158015610f6f57600080fd5b505afa158015610f83573d6000803e3d6000fd5b505050506040513d601f19601f82011682018060405250810190610fa79190612006565b604051610fb49190612358565b60405180910390a160008051602061271e83398151915281604051610fd99190612388565b60405180910390a1610feb8285611d19565b816001600160a01b0316836001600160a01b0316336001600160a01b03167ffbde797d201c681b91056529119e0b02407c7bb96a4a2c75c01fc9667232c8db848860405161103a929190612600565b60405180910390a4610a246001600160a01b037f0000000000000000000000000000000000000000000000000000000000000000168483611d7b565b60025460009080156107e2576107dd8161108e61042b565b85919061157c565b6001600160a01b038116600090815260036020526040812054610852906107be565b428410156110d85760405162461bcd60e51b81526004016108b790612527565b600060016110e4610a4f565b6001600160a01b038a166000908152600560209081526040918290208054600181019091559151611141927f6e71edae12b1b97f4d1f60370fef10105fa2faae0126114a169c64845d6126c9928e928e928e9290918e91016121b5565b60405160208183030381529060405280519060200120604051602001611168929190612159565b604051602081830303815290604052805190602001208585856040516000815260200160405260405161119e9493929190612215565b6020604051602081039080840390855afa1580156111c0573d6000803e3d6000fd5b5050604051601f1901519150506001600160a01b038116158015906111f65750876001600160a01b0316816001600160a01b0316145b6112125760405162461bcd60e51b81526004016108b7906124da565b6001600160a01b0390811660009081526004602090815260408083208a8516808552925291829020889055905190918916907f8c5be1e5ebec7d5bd14f71427d1e84f3dd0314c0f7b2291e5b200ac8c7c3b925906112719089906121ac565b60405180910390a350505050505050565b6001600160a01b031660009081526003602052604090205490565b600460209081526000928352604080842090915290825290205481565b600061085282611076565b6112cd6115c9565b6001600160a01b03166112de610c11565b6001600160a01b0316146113045760405162461bcd60e51b81526004016108b790612446565b6001600160a01b03811661132a5760405162461bcd60e51b81526004016108b790612312565b61133381611806565b50565b600754604051638b87634760e01b815260009182916001600160a01b0390911690638b8763479061136b903090600401612174565b60206040518083038186803b15801561138357600080fd5b505afa158015611397573d6000803e3d6000fd5b505050506040513d601f19601f820116820180604052508101906113bb9190612006565b600760009054906101000a90046001600160a01b03166001600160a01b031663cd3daf9d6040518163ffffffff1660e01b815260040160206040518083038186803b15801561140957600080fd5b505afa15801561141d573d6000803e3d6000fd5b505050506040513d601f19601f820116820180604052508101906114419190612006565b61144b919061267f565b6007546040516370a0823160e01b8152919250600091670de0b6b3a76400009184916001600160a01b03909116906370a082319061148d903090600401612174565b60206040518083038186803b1580156114a557600080fd5b505afa1580156114b9573d6000803e3d6000fd5b505050506040513d601f19601f820116820180604052508101906114dd9190612006565b6114e79190612660565b6114f19190612640565b600754604051630700037d60e01b81529192506001600160a01b031690630700037d90611522903090600401612174565b60206040518083038186803b15801561153a57600080fd5b505afa15801561154e573d6000803e3d6000fd5b505050506040513d601f19601f820116820180604052508101906115729190612006565b6107299082612628565b82820281151584158583048514171661159457600080fd5b0492915050565b8282028115158415858304851417166115b357600080fd5b6001826001830304018115150290509392505050565b3390565b60007f8b73c3c69bb8fe3d512ecc4cf759cc79239f7b179b0ffacaa9a75d522b39400f60006040516115ff91906120be565b60405190819003812061163b92917fc89efdaa54c0f20c7adf612882df0950f5a951637e0307cdcb4c672f298b8bc690469030906020016121e9565b60405160208183030381529060405280519060200120905090565b60006040516323b872dd60e01b81528460048201528360248201528260448201526020600060648360008a5af13d15601f3d11600160005114161716915050806116b25760405162461bcd60e51b81526004016108b7906123ba565b5050505050565b80600260008282546116cb9190612628565b90915550506001600160a01b038216600081815260036020526040808220805485019055516000805160206126fe8339815191529061170b9085906121ac565b60405180910390a35050565b600a5460075460405163095ea7b360e01b81526001600160a01b039283169263095ea7b39261174d929116908690600401612188565b602060405180830381600087803b15801561176757600080fd5b505af115801561177b573d6000803e3d6000fd5b505050506040513d601f19601f8201168201806040525081019061179f9190611fce565b5060075460405163534a7e1d60e11b81526001600160a01b039091169063a694fc3a906117d09085906004016121ac565b600060405180830381600087803b1580156117ea57600080fd5b505af11580156117fe573d6000803e3d6000fd5b505050505050565b600680546001600160a01b038381166001600160a01b0319831681179093556040519116919082907f8be0079c531659141344cd1fd0a4f28419497f9722a3daafe3b4186f6b6457e090600090a35050565b60008051602061271e833981519152816040516118759190612286565b60405180910390a1600754604051631c683a1b60e11b81526001600160a01b03909116906338d07436906118b09084906001906004016125b4565b600060405180830381600087803b1580156118ca57600080fd5b505af11580156118de573d6000803e3d6000fd5b5050505060008051602061271e8339815191526000604051611900919061255e565b60405180910390a16009546040516370a0823160e01b81526000916001600160a01b0316906370a0823190611939903090600401612174565b60206040518083038186803b15801561195157600080fd5b505afa158015611965573d6000803e3d6000fd5b505050506040513d601f19601f820116820180604052508101906119899190612006565b905060008051602061271e833981519152816040516119a8919061247b565b60405180910390a1806119bb5750611d15565b60095460085460405163095ea7b360e01b81526001600160a01b039283169263095ea7b3926119f1929116908590600401612188565b602060405180830381600087803b158015611a0b57600080fd5b505af1158015611a1f573d6000803e3d6000fd5b505050506040513d601f19601f82011682018060405250810190611a439190611fce565b5060008051602061271e8339815191526000604051611a6291906124a8565b60405180910390a160408051600480825260a0820190925260009160208201608080368337505060095482519293506001600160a01b031691839150600090611abb57634e487b7160e01b600052603260045260246000fd5b6001600160a01b039283166020918202929092010152600b54825191169082906001908110611afa57634e487b7160e01b600052603260045260246000fd5b6001600160a01b039283166020918202929092010152600c54825191169082906002908110611b3957634e487b7160e01b600052603260045260246000fd5b6001600160a01b039283166020918202929092010152600a54825191169082906003908110611b7857634e487b7160e01b600052603260045260246000fd5b6001600160a01b039283166020918202929092010152600854600091166338ed173984838530611ba9426001612628565b6040518663ffffffff1660e01b8152600401611bc99594939291906125c4565b600060405180830381600087803b158015611be357600080fd5b505af1158015611bf7573d6000803e3d6000fd5b505050506040513d6000823e601f3d908101601f19168201604052611c1f9190810190611f0f565b600381518110611c3f57634e487b7160e01b600052603260045260246000fd5b6020026020010151905060008051602061271e83398151915281604051611c6691906123e8565b60405180910390a1600a546040516370a0823160e01b815260008051602061271e833981519152916001600160a01b0316906370a0823190611cac903090600401612174565b60206040518083038186803b158015611cc457600080fd5b505afa158015611cd8573d6000803e3d6000fd5b505050506040513d601f19601f82011682018060405250810190611cfc9190612006565b604051611d0991906122ba565b60405180910390a15050505b5050565b6001600160a01b03821660009081526003602052604081208054839290611d4190849061267f565b90915550506002805482900390556040516000906001600160a01b038416906000805160206126fe8339815191529061170b9085906121ac565b600060405163a9059cbb60e01b8152836004820152826024820152602060006044836000895af13d15601f3d1160016000511416171691505080611dd15760405162461bcd60e51b81526004016108b79061241d565b50505050565b80356001600160a01b03811681146107e857600080fd5b600060208284031215611dff578081fd5b610a2482611dd7565b60008060408385031215611e1a578081fd5b611e2383611dd7565b9150611e3160208401611dd7565b90509250929050565b600080600060608486031215611e4e578081fd5b611e5784611dd7565b9250611e6560208501611dd7565b9150604084013590509250925092565b600080600080600080600060e0888a031215611e8f578283fd5b611e9888611dd7565b9650611ea660208901611dd7565b95506040880135945060608801359350608088013560ff81168114611ec9578384fd5b9699959850939692959460a0840135945060c09093013592915050565b60008060408385031215611ef8578182fd5b611f0183611dd7565b946020939093013593505050565b60006020808385031215611f21578182fd5b825167ffffffffffffffff80821115611f38578384fd5b818501915085601f830112611f4b578384fd5b815181811115611f5d57611f5d6126e7565b838102604051601f19603f83011681018181108582111715611f8157611f816126e7565b604052828152858101935084860182860187018a1015611f9f578788fd5b8795505b83861015611fc1578051855260019590950194938601938601611fa3565b5098975050505050505050565b600060208284031215611fdf578081fd5b81518015158114610a24578182fd5b600060208284031215611fff578081fd5b5035919050565b600060208284031215612017578081fd5b5051919050565b60008060408385031215612030578182fd5b82359150611e3160208401611dd7565b600080600060608486031215612054578283fd5b8335925061206460208501611dd7565b915061207260408501611dd7565b90509250925092565b6000815180845260208085019450808401835b838110156120b35781516001600160a01b03168752958201959082019060010161208e565b509495945050505050565b81546000908190600281046001808316806120da57607f831692505b60208084108214156120fa57634e487b7160e01b87526022600452602487fd5b81801561210e576001811461211f5761214b565b60ff1986168952848901965061214b565b6121288a61261c565b885b868110156121435781548b82015290850190830161212a565b505084890196505b509498975050505050505050565b61190160f01b81526002810192909252602282015260420190565b6001600160a01b0391909116815260200190565b6001600160a01b03929092168252602082015260400190565b901515815260200190565b90815260200190565b9586526001600160a01b0394851660208701529290931660408501526060840152608083019190915260a082015260c00190565b9485526020850193909352604084019190915260608301526001600160a01b0316608082015260a00190565b93845260ff9290921660208401526040830152606082015260800190565b6000602080835283518082850152825b8181101561225f57858101830151858201604001528201612243565b818111156122705783604083870101525b50601f01601f1916929092016040019392505050565b60408082526012908201527102ab739ba30b5b4b7339020b9b9b2ba399d160751b6060820152602081019190915260800190565b604080825260119082015270021ab2c1030b33a32b9102a3930b2329d1607d1b6060820152602081019190915260800190565b6020808252600b908201526a5a45524f5f53484152455360a81b604082015260600190565b60208082526026908201527f4f776e61626c653a206e6577206f776e657220697320746865207a65726f206160408201526564647265737360d01b606082015260800190565b6040808252600e908201526d20b1ba3ab0b61020b9b9b2ba399d60911b6060820152602081019190915260800190565b60408082526010908201526f2bb4ba34323930bb9020b9b9b2ba399d60811b6060820152602081019190915260800190565b6020808252601490820152731514905394d1915497d19493d357d1905253115160621b604082015260600190565b60408082526013908201527202a3930b232a932ba3ab93720a6b7bab73a1d1606d1b6060820152602081019190915260800190565b6020808252600f908201526e1514905394d1915497d19052531151608a1b604082015260600190565b6020808252818101527f4f776e61626c653a2063616c6c6572206973206e6f7420746865206f776e6572604082015260600190565b6040808252600b908201526a032b0b93732b22932bb9d160ad1b6060820152602081019190915260800190565b60408082526010908201526f030b8383937bb32903bb7b935b2b21d160851b6060820152602081019190915260800190565b6020808252600e908201526d24a72b20a624a22fa9a4a3a722a960911b604082015260600190565b6020808252600b908201526a5a45524f5f41535345545360a81b604082015260600190565b60208082526017908201527f5045524d49545f444541444c494e455f45585049524544000000000000000000604082015260600190565b60408082526013908201527202bb4ba34323930bb9029bab1b1b2b9b9909d1606d1b6060820152602081019190915260800190565b6000838252604060208301526125ac604083018461207b565b949350505050565b9182521515602082015260400190565b600086825285602083015260a060408301526125e360a083018661207b565b6001600160a01b0394909416606083015250608001529392505050565b918252602082015260400190565b60ff91909116815260200190565b60009081526020902090565b6000821982111561263b5761263b6126d1565b500190565b60008261265b57634e487b7160e01b81526012600452602481fd5b500490565b600081600019048311821515161561267a5761267a6126d1565b500290565b600082821015612691576126916126d1565b500390565b6002810460018216806126aa57607f821691505b602082108114156126cb57634e487b7160e01b600052602260045260246000fd5b50919050565b634e487b7160e01b600052601160045260246000fd5b634e487b7160e01b600052604160045260246000fdfeddf252ad1be2c89b69c2b068fc378daa952ba7f163c4a11628f55a4df523b3efb2de2fbe801a0df6c0cbddfd448ba3c41d48a040ca35c56c8196ef0fcae721a8a26469706673582212202afbb2d690efa112d0254ead546d4f7a9bcdfddcf8e322814abcd61f9d6b6b3564736f6c63430008010033",
    "linkReferences": {}
  }
}